:100000000C9434000C9446000C9446000C9446006A
:100010000C9446000C9446000C9446000C94460048
:100020000C9446000C9446000C9446000C94460038
:100030000C9446000C9446000C9462000C947100E1
:100040000C9480000C9446000C9446000C944600DE
:100050000C9446000C9446000C9446000C94460008
:100060000C9446000C94460011241FBECFEFD8E03C
:10007000DEBFCDBF21E0A0E0B1E001C01D92AB30FA
:10008000B207E1F70E94E8000C9445010C940000CF
:10009000EAEBF0E0808185688083ECEBF0E0808122
:1000A0008464808380818F7C8083089584B583609D
:1000B00084BD85B5846085BDEEE6F0E08081876013
:1000C000808308951F920F920FB60F9211248F9381
:1000D0008BB18F708BB98F910F900FBE0F901F90C7
:1000E00018951F920F920FB60F9211248F938BB118
:1000F000807F8BB98F910F900FBE0F901F90189536
:100100001F920F920FB60F9211245F936F937F93FC
:100110008F939F93AF93BF93EF93FF9380910001D1
:10012000813051F028F0823059F0833069F00FC0EF
:100130008BB181618BB90BC08BB182628BB907C067
:100140008BB184648BB903C08BB188688BB9809103
:10015000000190E0019665E070E00E941D0180932F
:100160000001E0910001F0E0EF5FFE4F808187BD6C
:10017000E0910001F0E0EA5FFE4F808188BDFF91D1
:10018000EF91BF91AF919F918F917F916F915F910F
:100190000F900FBE0F901F90189580E090E030E414
:1001A0002EE580FF05C0FC01EF5FFE4F208304C0F9
:1001B000FC01EF5FFE4F308301968A30910589F78D
:1001C0000E9448008FEF8AB90E94560078940895E3
:1001D0000E94CD0020E030E0ECEBF0E0C9EBD0E095
:1001E0000F2EFBEBEF2EF12CF02D0AE010E09081AA
:1001F0009923ECF78881803819F0803971F019C0A3
:10020000D7018C91D901AF5FBE4F8C93C901019684
:10021000B8010E941D019C010CC0D7018C91D9012D
:10022000AF5FBE4F8C93C9010196B8010E941D01BA
:100230009C01908190689083DACF97FB072E16F48B
:10024000009407D077FD09D00E94310107FC05D04A
:100250003EF4909581959F4F0895709561957F4FDD
:100260000895AA1BBB1B51E107C0AA1FBB1FA617FD
:10027000B70710F0A61BB70B881F991F5A95A9F74F
:0E02800080959095BC01CD010895F894FFCFB4
:00000001FF
