S01500004C6567436F6E74726F6C6C65722E73726563D3
S11300000C9405010C9422010C9422010C942201FD
S11300100C9422010C9422010C9422010C942201D0
S11300200C9422010C9422010C9422010C942201C0
S11300300C9422010C9422010C9422010C942201B0
S11300400C9422010C9422010C9422010C942201A0
S11300500C9422010C9422010C9422010C94220190
S11300600C9422010C9422010C9422010C94220180
S11300700C9422010C9422010C9422010C94220170
S11300800C9422010C9422010C9422010C94220160
S11300900C9422010C9422010C9422010C94220150
S11300A00C9422010C9422010C9422010C94220140
S11300B00C9422010C9422010C9422010C94220130
S11300C00C9422010C9422010C9422010C94220120
S11300D00C9422010C9422010C9422010C94220110
S11300E00C9422010C9422010C9422010C94220100
S11300F00C9422010C9422010C9422010C942201F0
S11301000C9422010C9422010C9422010C942201DF
S11301100C9422010C9422010C9422010C942201CF
S11301200C9422010C9422010C9422010C942201BF
S11301300C9422010C9422010C9422010C942201AF
S11301400C9422010C9422010C9422010C9422019F
S11301500C9422010C9422010C9422010C9422018F
S11301600C9422010C9422010C9422010C9422017F
S11301700C9422010C9422010C9422010C9422016F
S11301800C9422010C9422010C9422010C9422015F
S11301900C9422010C9422010C9422010C9422014F
S11301A00C9422010C9422010C9422010C9422013F
S11301B00C9422010C9422010C9422010C9422012F
S11301C00C9422010C9422010C9422010C9422011F
S11301D00C9422010C9422010C9422010C9422010F
S11301E00C9422010C9422010C9422010C942201FF
S11301F00C9422010C9422010C9422017C022B0207
S113020034024502560267027C0211241FBECFEF5E
S1130210CDBFDFE2DEBF10E2A0E0B0E2E2E9FBE046
S113022002C005900D92A030B107D9F720E2A0E0FA
S1130230B0E201C01D92A030B207E1F70E944D0365
S11302400C94C7050C940000181619066CF420E0F1
S113025030E0EFE9FFE03197F1F700C000002F5FD5
S11302603F4F28173907A9F70895E0E5F0E08BEC34
S11302708283808188608083E1E5F0E0808183FF70
S1130280FDCF88ED84BF83E0809340000895E0E6CD
S1130290F6E0808187608083A0E4B6E087E01E9664
S11302A08C931E978C9180678C9314968C911497E1
S11302B0886014968C9314978C9188608C938081B9
S11302C0808388E1838B848B858B0895E0E0F9E05B
S11302D080E49CE986A397A384E0808383E38183FD
S11302E008958FE08093A50488E08093A10481E0C1
S11302F08093A4040895E0EAF8E08CE0868380E229
S1130300878383E0858388E184830895E1EAF8E0C4
S1130310908195FFFDCF8093A00808952F923F927E
S11303204F925F926F927F928F929F92AF92BF9201
S1130330CF92DF92EF92FF920F931F93CF93DF93AD
S1130340CDB7DEB72697CDBFDEBF5C016A017B0166
S1130350722E632E9C01A9E8B8E80E94B805969510
S11303608795929582958F7089279F7089279C0124
S113037033272D833E83B50180E090E00E94B704CB
S113038020E030E040E752E40E9416044B015C0197
S1130390ED81FE81BF01FF0F880B990B0E94B90408
S11303A09B01AC01C501B4010E94A9034B015C018E
S11303B0A701960160E070E080E89FE30E94A90332
S11303C0202F312F472D562D0E944505562E472E9E
S11303D0382E292EA5019401C701B6010E944505B6
S11303E09B01AC0160E070E080E89FE30E94A903F8
S11303F0202F312F472D562D0E94450569837A837E
S11304008B839C83A501940160E070E080E89FE306
S11304100E94A903A70196010E9445059B01AC0116
S113042060E070E080E89FE30E94A903202F312F51
S1130430472D562D0E944505F62EE72ED82EC92E9F
S11304402D813E812730310508F04AC0F901E25080
S1130450FF4F0C94B205F02EE12ED72CC62C098147
S11304601A817B806C8048C0302F212F972D862DD8
S1130470052D142D732C622C5F2C4E2C3D2C2C2C12
S1130480F32EE22ED92EC82E37C0F980EA80DB8005
S1130490CC80302F212F972D862D052D142D732CD4
S11304A0622C532E422E392E282E26C0302F212F77
S11304B0972D862D0F2D1E2D7D2C6C2CF52CE42CC8
S11304C0D32CC22C532E422E392E282E15C0F52C97
S11304D0E42CD32CC22C59804A803B802C800CC045
S11304E0512C412C312C212CF12CE12CD12CC12C60
S11304F000E010E0712C612C20E030E04AE756E483
S1130500602F712F872D962D0E9445050E94880427
S113051000E018E0F80160A771A720E030E04AE7A6
S113052056E46F2D7E2D8D2D9C2D0E9445050E9435
S11305308804F80162A773A720E030E04AE756E494
S1130540652D742D832D922D0E9445050E948804EB
S1130550F80164A775A78185886081872696CDBF39
S1130560DEBFDF91CF911F910F91FF90EF90DF904D
S1130570CF90BF90AF909F908F907F906F905F903F
S11305804F903F902F9008950F931F93E0E0F8E071
S113059080E89EE386A397A384E0808383E7818336
S11305A080916806887390E09595879595958795D1
S11305B09595879501970AE017ED23EA3BE340E020
S11305C050E060E87FE3ECE3DC01EA9FC001EB9FCD
S11305D0900D11240E948E011F910F91089592E8AD
S11305E09093A604E4EAF4E090819076E9F3809392
S11305F0A704E4EAF4E080818076E9F37093A70429
S1130600E4EAF4E080818076E9F36093A704E4EA05
S1130610F4E080818076E9F3E3EAF4E080818360AA
S113062080830895CF93DF9392E89093A604E4EA3D
S1130630F4E090819076E9F38093A704E4EAF4E08F
S113064080818076E9F383E88093A604E4EAF4E009
S113065080818076E9F3C091A704E3EAF4E0808125
S113066082608083E4EAF4E090819076E9F3D091AB
S1130670A704E3EAF4E09081936090838C2F0E94B6
S113068086018D2F0E9486018C2F90E0982F882759
S11306908D0F911DDF91CF9108950E9435010E9425
S11306A047010E94C4020E9466010E9471010E94D7
S11306B07B0160E070E880E00E94EF026FEF7FE46E
S11306C080E00E94EF028EEF0E9412038AE00E94F3
S11306D086018FEF0E9412038AE00E948601C0E027
S11306E0D0E00F2EF8E6EF2EFF24F394F02D0AE06D
S11306F017ED23EA3BE340E050E060E87FE3CE01FE
S11307000E948E01AE014F5F5F4F9A01A3E8BDE2E4
S11307100E94B805EC010024CC0FDD1F001CCC0F97
S1130720DD1F001CCD2FD02DCE9DC001CF9D900D7F
S1130730DE9D900D1124EA01C81BD90B8AE090E0DC
S11307400E94240181E60E9486018AE00E948601BB
S1130750CECF5058BB27AA270E94C1030C940B0587
S11307600E94FD0438F00E94040520F039F49F3FF4
S113077019F426F40C94FA040EF4E095E7FB0C94B7
S1130780F404E92F0E941C0558F3BA176207730793
S11307908407950720F079F4A6F50C943E050EF431
S11307A0E0950B2EBA2FA02D0B01B90190010C017D
S11307B0CA01A0011124FF27591B99F0593F50F495
S11307C0503E68F11A16F040A22F232F342F4427ED
S11307D0585FF3CF469537952795A795F0405395E5
S11307E0C9F77EF41F16BA0B620B730B840BBAF0B5
S11307F09150A1F0FF0FBB1F661F771F881FC2F720
S11308000EC0BA0F621F731F841F48F48795779533
S11308106795B795F7959E3F08F0B0CF9395880FED
S113082008F09927EE0F9795879508950E942A045A
S11308300C940B050E94040558F00E94FD0440F03E
S113084029F45F3F29F00C94F40451110C943F05F2
S11308500C94FA040E941C0568F39923B1F3552300
S113086091F3951B550BBB27AA27621773078407BF
S113087038F09F5F5F4F220F331F441FAA1FA9F355
S113088035D00E2E3AF0E0E832D091505040E69543
S1130890001CCAF72BD0FE2F29D0660F771F881FA4
S11308A0BB1F261737074807AB07B0E809F0BB0B97
S11308B0802DBF01FF2793585F4F3AF09E3F5105AB
S11308C078F00C94F4040C943F055F3FE4F3983EF5
S11308D0D4F3869577956795B795F7959F5FC9F794
S11308E0880F911D9695879597F90895E1E0660F15
S11308F0771F881FBB1F621773078407BA0720F08E
S1130900621B730B840BBA0BEE1F88F7E0950895F6
S11309100E94240588F09F5798F0B92F9927B75162
S1130920B0F0E1F0660F771F881F991F1AF0BA958F
S1130930C9F714C0B13091F00E943E05B1E00895AA
S11309400C943E05672F782F8827B85F39F0B93F9C
S1130950CCF3869577956795B395D9F73EF4909542
S11309608095709561957F4F8F4F9F4F0895E894C0
S113097009C097FB3EF490958095709561957F4FE3
S11309808F4F9F4F9923A9F0F92F96E9BB27939591
S1130990F695879577956795B795F111F8CFFAF4A1
S11309A0BB0F11F460FF1BC06F5F7F4F8F4F9F4FD2
S11309B016C0882311F096E911C0772321F09EE830
S11309C0872F762F05C0662371F096E8862F70E096
S11309D060E02AF09A95660F771F881FDAF7880F70
S11309E09695879597F9089597F99F6780E870E041
S11309F060E008959FEF80EC089500240A94161691
S1130A00170618060906089500240A9412161306F8
S1130A10140605060895092E0394000C11F4882386
S1130A2052F0BB0F40F4BF2B11F460FF04C06F5FA2
S1130A307F4F8F4F9F4F089557FD9058440F551F78
S1130A4059F05F3F71F04795880F97FB991F61F04C
S1130A509F3F79F087950895121613061406551FC3
S1130A60F2CF4695F1DF08C0161617061806991F2F
S1130A70F1CF86957105610508940895E894BB2724
S1130A8066277727CB0197F908950E9458050C949F
S1130A900B050E94FD0438F00E94040520F0952304
S1130AA011F00C94F4040C94FA0411240C943F05F2
S1130AB00E941C0570F3959FC1F3950F50E0551FDC
S1130AC0629FF001729FBB27F00DB11D639FAA279F
S1130AD0F00DB11DAA1F649F6627B00DA11D661FEE
S1130AE0829F2227B00DA11D621F739FB00DA11D0F
S1130AF0621F839FA00D611D221F749F3327A00DC9
S1130B00611D231F849F600D211D822F762F6A2F64
S1130B1011249F5750409AF0F1F088234AF0EE0FC9
S1130B20FF1FBB1F661F771F881F91505040A9F7F6
S1130B309E3F510580F00C94F4040C943F055F3FF4
S1130B40E4F3983ED4F3869577956795B795F79532
S1130B50E7959F5FC1F7FE2B880F911D96958795AA
S1130B6097F90895EE0FFF1F0590F491E02D099475
S1130B70A29FB001B39FC001A39F700D811D1124DA
S1130B80911DB29F700D811D1124911D0895F8943B
S1050B90FFCF91
S9030000FC
