S01E00005261737062657272795F50495F536572766F5F4861742E737265636A
S11300000C9444000C9456000C9456000C94560026
S11300100C9456000C9456000C9456000C94560004
S11300200C9456000C9456000C9456000C945600F4
S11300300C9456000C9456000C9456000C945600E4
S11300400C947A000C948D000C949F000C94560030
S11300500C9456000C9456000C9456000C945600C4
S11300600C9456000C9456000C9456000C945600B4
S1130070B900BC00BF00C200C500C800CB00CE0060
S1130080D100D400D700DA0011241FBECFEFD0E195
S1130090DEBFCDBF21E0A0E0B1E001C01D92A931D7
S11300A0B207E1F70E9415010C9486010C9400003C
S11300B0EAEBF0E0808185688083ECEBF0E08081FE
S11300C08464808380818F7C808308958FEF81B9DD
S11300D09FE194B99CEF97B98AB9089584B5836078
S11300E084BD85B5836085BDEEE6F0E080818760E0
S11300F0808308951F920F920FB60F9211248F934D
S11301008BB187708BB988B1837088B917988F9138
S11301100F900FBE0F901F9018951F920F920FB65D
S11301200F9211248F9382B1807882B985B1807E39
S113013085B98F910F900FBE0F901F9018951F9245
S11301400F920FB60F9211245F936F937F938F9347
S11301509F93AF93BF93EF93FF93E09100018E2F92
S113016090E08C30910540F5FC01E85CFF4F0C9465
S11301706C015B9A169A20C05C9A159A1DC05D9A10
S1130180149A1AC05E9A139A17C05F9A129A14C0EE
S1130190429A119A11C0439A109A0EC0449A289A0E
S11301A00BC0459A299A08C0469A2A9A05C0479ACC
S11301B02B9A02C0179A2C9A8091000190E0019624
S11301C06CE070E00E94580180930001E09100010E
S11301D0F0E0EF5FFE4F808187BDE0910001F0E029
S11301E0E35FFE4F808188BDFF91EF91BF91AF9196
S11301F09F918F917F916F915F910F900FBE0F90A0
S11302001F90189580E090E02BEBFC01EF5FFE4F10
S11302102083019688319105C1F70E9458000E94FD
S113022066000E946E00789408950E94020180E0A6
S1130230ECEBF0E0C9EBD0E00BEB10E028E130E0B0
S113024040E090819923ECF79881903879F028F474
S1130250903641F0903741F027C09039A9F0903A98
S113026009F122C0589A20C0589A1EC0599A90E0A9
S1130270D8015C91DC01AF5FBE4F5C930196B9017C
S11302800E945801599810C0599A90E0D8015C9185
S1130290DC01AF5FBE4F5C930196B9010E94580127
S11302A0599802C05898842F908190689083C9CF40
S11302B097FB072E16F4009407D077FD09D00E940F
S11302C0720107FC05D03EF4909581959F4F0895E7
S11302D0709561957F4F0895EE0FFF1F0590F4917F
S11302E0E02D0994AA1BBB1B51E107C0AA1FBB1F29
S11302F0A617B70710F0A61BB70B881F991F5A95AE
S1130300A9F780959095BC01CD010895F894FFCF8D
S9030000FC
